{
  "contractName": "RevealableUpgradeable",
  "abi": [
    {
      "anonymous": false,
      "inputs": [
        {
          "indexed": false,
          "internalType": "uint8",
          "name": "version",
          "type": "uint8"
        }
      ],
      "name": "Initialized",
      "type": "event"
    },
    {
      "anonymous": false,
      "inputs": [
        {
          "indexed": true,
          "internalType": "address",
          "name": "previousOwner",
          "type": "address"
        },
        {
          "indexed": true,
          "internalType": "address",
          "name": "newOwner",
          "type": "address"
        }
      ],
      "name": "OwnershipTransferred",
      "type": "event"
    },
    {
      "inputs": [],
      "name": "owner",
      "outputs": [
        {
          "internalType": "address",
          "name": "",
          "type": "address"
        }
      ],
      "stateMutability": "view",
      "type": "function"
    },
    {
      "inputs": [],
      "name": "renounceOwnership",
      "outputs": [],
      "stateMutability": "nonpayable",
      "type": "function"
    },
    {
      "inputs": [],
      "name": "revealed",
      "outputs": [
        {
          "internalType": "bool",
          "name": "",
          "type": "bool"
        }
      ],
      "stateMutability": "view",
      "type": "function"
    },
    {
      "inputs": [
        {
          "internalType": "address",
          "name": "newOwner",
          "type": "address"
        }
      ],
      "name": "transferOwnership",
      "outputs": [],
      "stateMutability": "nonpayable",
      "type": "function"
    },
    {
      "inputs": [],
      "name": "initialize",
      "outputs": [],
      "stateMutability": "nonpayable",
      "type": "function"
    },
    {
      "inputs": [
        {
          "internalType": "string",
          "name": "uri",
          "type": "string"
        }
      ],
      "name": "reveal",
      "outputs": [],
      "stateMutability": "nonpayable",
      "type": "function"
    },
    {
      "inputs": [],
      "name": "hide",
      "outputs": [],
      "stateMutability": "nonpayable",
      "type": "function"
    },
    {
      "inputs": [
        {
          "internalType": "string",
          "name": "uri",
          "type": "string"
        }
      ],
      "name": "setRevealURI",
      "outputs": [],
      "stateMutability": "nonpayable",
      "type": "function"
    }
  ],
  "bytecode": "0x608060405234801561001057600080fd5b506105de806100206000396000f3fe608060405234801561001057600080fd5b50600436106100885760003560e01c80638da5cb5b1161005b5780638da5cb5b146100d4578063a811a37b146100ef578063b62a762514610102578063f2fde38b1461010a57600080fd5b80634c2612471461008d57806351830227146100a2578063715018a6146100c45780638129fc1c146100cc575b600080fd5b6100a061009b36600461048c565b61011d565b005b6065546100af9060ff1681565b60405190151581526020015b60405180910390f35b6100a061013e565b6100a0610152565b6033546040516001600160a01b0390911681526020016100bb565b6100a06100fd36600461048c565b610288565b6100a06102a7565b6100a061011836600461053d565b6102bb565b610125610331565b6065805460ff1916600117905561013b81610288565b50565b610146610331565b610150600061038b565b565b600054610100900460ff16158080156101725750600054600160ff909116105b8061018c5750303b15801561018c575060005460ff166001145b6101f45760405162461bcd60e51b815260206004820152602e60248201527f496e697469616c697a61626c653a20636f6e747261637420697320616c72656160448201526d191e481a5b9a5d1a585b1a5e995960921b60648201526084015b60405180910390fd5b6000805460ff191660011790558015610217576000805461ff0019166101001790555b6065805460ff1916905560408051602081019182905260009081905261023f916066916103dd565b50801561013b576000805461ff0019169055604051600181527f7f26b83ff96e1f2b6a682f133852f6798a09c465da95921460cefb38474024989060200160405180910390a150565b610290610331565b80516102a39060669060208401906103dd565b5050565b6102af610331565b6065805460ff19169055565b6102c3610331565b6001600160a01b0381166103285760405162461bcd60e51b815260206004820152602660248201527f4f776e61626c653a206e6577206f776e657220697320746865207a65726f206160448201526564647265737360d01b60648201526084016101eb565b61013b8161038b565b6033546001600160a01b031633146101505760405162461bcd60e51b815260206004820181905260248201527f4f776e61626c653a2063616c6c6572206973206e6f7420746865206f776e657260448201526064016101eb565b603380546001600160a01b038381166001600160a01b0319831681179093556040519116919082907f8be0079c531659141344cd1fd0a4f28419497f9722a3daafe3b4186f6b6457e090600090a35050565b8280546103e99061056d565b90600052602060002090601f01602090048101928261040b5760008555610451565b82601f1061042457805160ff1916838001178555610451565b82800160010185558215610451579182015b82811115610451578251825591602001919060010190610436565b5061045d929150610461565b5090565b5b8082111561045d5760008155600101610462565b634e487b7160e01b600052604160045260246000fd5b60006020828403121561049e57600080fd5b813567ffffffffffffffff808211156104b657600080fd5b818401915084601f8301126104ca57600080fd5b8135818111156104dc576104dc610476565b604051601f8201601f19908116603f0116810190838211818310171561050457610504610476565b8160405282815287602084870101111561051d57600080fd5b826020860160208301376000928101602001929092525095945050505050565b60006020828403121561054f57600080fd5b81356001600160a01b038116811461056657600080fd5b9392505050565b600181811c9082168061058157607f821691505b602082108114156105a257634e487b7160e01b600052602260045260246000fd5b5091905056fea264697066735822122005feb81f6341c2da9d99906ad698d41c373000a1c0c1f06f472ec17db52f14f164736f6c63430008090033",
  "immutableReferences": {},
  "source": "// SPDX-License-Identifier: MIT\n\npragma solidity ^0.8.0;\nimport \"@openzeppelin/contracts-upgradeable/proxy/utils/Initializable.sol\";\nimport \"@openzeppelin/contracts-upgradeable/access/OwnableUpgradeable.sol\";\n\ncontract RevealableUpgradeable is Initializable, OwnableUpgradeable {\n  bool public revealed;\n  string internal _revealURI;\n\n  function initialize() external initializer {\n    revealed = false;\n    _revealURI = \"\";\n  }\n\n  function reveal(string memory uri) public onlyOwner {\n    revealed = true;\n    setRevealURI(uri);\n  }\n\n  function hide() public onlyOwner {\n    revealed = false;\n  }\n\n  function setRevealURI(string memory uri) public onlyOwner {\n    _revealURI = uri;\n  }\n}\n",
  "sourcePath": "/Users/namhoonlee/Desktop/git/open-smart-contracts/polygon/GeneralERC20/contracts/RevealableUpgradeable.sol",
  "compiler": {
    "name": "solc",
    "version": "0.8.9+commit.e5eed63a.Emscripten.clang"
  },
  "schemaVersion": "3.4.7",
  "updatedAt": "2022-10-11T08:31:46.051Z",
  "devdoc": {
    "kind": "dev",
    "methods": {
      "owner()": {
        "details": "Returns the address of the current owner."
      },
      "renounceOwnership()": {
        "details": "Leaves the contract without owner. It will not be possible to call `onlyOwner` functions anymore. Can only be called by the current owner. NOTE: Renouncing ownership will leave the contract without an owner, thereby removing any functionality that is only available to the owner."
      },
      "transferOwnership(address)": {
        "details": "Transfers ownership of the contract to a new account (`newOwner`). Can only be called by the current owner."
      }
    },
    "version": 1
  },
  "userdoc": {
    "kind": "user",
    "methods": {},
    "version": 1
  }
}