{
  "contractName": "GeneralERC721V1",
  "abi": [
    {
      "anonymous": false,
      "inputs": [
        {
          "indexed": true,
          "internalType": "address",
          "name": "owner",
          "type": "address"
        },
        {
          "indexed": true,
          "internalType": "address",
          "name": "approved",
          "type": "address"
        },
        {
          "indexed": true,
          "internalType": "uint256",
          "name": "tokenId",
          "type": "uint256"
        }
      ],
      "name": "Approval",
      "type": "event"
    },
    {
      "anonymous": false,
      "inputs": [
        {
          "indexed": true,
          "internalType": "address",
          "name": "owner",
          "type": "address"
        },
        {
          "indexed": true,
          "internalType": "address",
          "name": "operator",
          "type": "address"
        },
        {
          "indexed": false,
          "internalType": "bool",
          "name": "approved",
          "type": "bool"
        }
      ],
      "name": "ApprovalForAll",
      "type": "event"
    },
    {
      "anonymous": false,
      "inputs": [
        {
          "indexed": false,
          "internalType": "uint8",
          "name": "version",
          "type": "uint8"
        }
      ],
      "name": "Initialized",
      "type": "event"
    },
    {
      "anonymous": false,
      "inputs": [
        {
          "indexed": true,
          "internalType": "address",
          "name": "previousOwner",
          "type": "address"
        },
        {
          "indexed": true,
          "internalType": "address",
          "name": "newOwner",
          "type": "address"
        }
      ],
      "name": "OwnershipTransferred",
      "type": "event"
    },
    {
      "anonymous": false,
      "inputs": [
        {
          "indexed": true,
          "internalType": "address",
          "name": "from",
          "type": "address"
        },
        {
          "indexed": true,
          "internalType": "address",
          "name": "to",
          "type": "address"
        },
        {
          "indexed": true,
          "internalType": "uint256",
          "name": "tokenId",
          "type": "uint256"
        }
      ],
      "name": "Transfer",
      "type": "event"
    },
    {
      "inputs": [
        {
          "internalType": "address",
          "name": "to",
          "type": "address"
        },
        {
          "internalType": "uint256",
          "name": "tokenId",
          "type": "uint256"
        }
      ],
      "name": "approve",
      "outputs": [],
      "stateMutability": "nonpayable",
      "type": "function"
    },
    {
      "inputs": [
        {
          "internalType": "address",
          "name": "owner",
          "type": "address"
        }
      ],
      "name": "balanceOf",
      "outputs": [
        {
          "internalType": "uint256",
          "name": "",
          "type": "uint256"
        }
      ],
      "stateMutability": "view",
      "type": "function"
    },
    {
      "inputs": [
        {
          "internalType": "uint256",
          "name": "tokenId",
          "type": "uint256"
        }
      ],
      "name": "getApproved",
      "outputs": [
        {
          "internalType": "address",
          "name": "",
          "type": "address"
        }
      ],
      "stateMutability": "view",
      "type": "function"
    },
    {
      "inputs": [
        {
          "internalType": "address",
          "name": "owner",
          "type": "address"
        },
        {
          "internalType": "address",
          "name": "operator",
          "type": "address"
        }
      ],
      "name": "isApprovedForAll",
      "outputs": [
        {
          "internalType": "bool",
          "name": "",
          "type": "bool"
        }
      ],
      "stateMutability": "view",
      "type": "function"
    },
    {
      "inputs": [],
      "name": "name",
      "outputs": [
        {
          "internalType": "string",
          "name": "",
          "type": "string"
        }
      ],
      "stateMutability": "view",
      "type": "function"
    },
    {
      "inputs": [],
      "name": "owner",
      "outputs": [
        {
          "internalType": "address",
          "name": "",
          "type": "address"
        }
      ],
      "stateMutability": "view",
      "type": "function"
    },
    {
      "inputs": [
        {
          "internalType": "uint256",
          "name": "tokenId",
          "type": "uint256"
        }
      ],
      "name": "ownerOf",
      "outputs": [
        {
          "internalType": "address",
          "name": "",
          "type": "address"
        }
      ],
      "stateMutability": "view",
      "type": "function"
    },
    {
      "inputs": [],
      "name": "renounceOwnership",
      "outputs": [],
      "stateMutability": "nonpayable",
      "type": "function"
    },
    {
      "inputs": [
        {
          "internalType": "address",
          "name": "from",
          "type": "address"
        },
        {
          "internalType": "address",
          "name": "to",
          "type": "address"
        },
        {
          "internalType": "uint256",
          "name": "tokenId",
          "type": "uint256"
        }
      ],
      "name": "safeTransferFrom",
      "outputs": [],
      "stateMutability": "nonpayable",
      "type": "function"
    },
    {
      "inputs": [
        {
          "internalType": "address",
          "name": "from",
          "type": "address"
        },
        {
          "internalType": "address",
          "name": "to",
          "type": "address"
        },
        {
          "internalType": "uint256",
          "name": "tokenId",
          "type": "uint256"
        },
        {
          "internalType": "bytes",
          "name": "data",
          "type": "bytes"
        }
      ],
      "name": "safeTransferFrom",
      "outputs": [],
      "stateMutability": "nonpayable",
      "type": "function"
    },
    {
      "inputs": [
        {
          "internalType": "address",
          "name": "operator",
          "type": "address"
        },
        {
          "internalType": "bool",
          "name": "approved",
          "type": "bool"
        }
      ],
      "name": "setApprovalForAll",
      "outputs": [],
      "stateMutability": "nonpayable",
      "type": "function"
    },
    {
      "inputs": [
        {
          "internalType": "bytes4",
          "name": "interfaceId",
          "type": "bytes4"
        }
      ],
      "name": "supportsInterface",
      "outputs": [
        {
          "internalType": "bool",
          "name": "",
          "type": "bool"
        }
      ],
      "stateMutability": "view",
      "type": "function"
    },
    {
      "inputs": [],
      "name": "symbol",
      "outputs": [
        {
          "internalType": "string",
          "name": "",
          "type": "string"
        }
      ],
      "stateMutability": "view",
      "type": "function"
    },
    {
      "inputs": [
        {
          "internalType": "uint256",
          "name": "tokenId",
          "type": "uint256"
        }
      ],
      "name": "tokenURI",
      "outputs": [
        {
          "internalType": "string",
          "name": "",
          "type": "string"
        }
      ],
      "stateMutability": "view",
      "type": "function"
    },
    {
      "inputs": [
        {
          "internalType": "address",
          "name": "from",
          "type": "address"
        },
        {
          "internalType": "address",
          "name": "to",
          "type": "address"
        },
        {
          "internalType": "uint256",
          "name": "tokenId",
          "type": "uint256"
        }
      ],
      "name": "transferFrom",
      "outputs": [],
      "stateMutability": "nonpayable",
      "type": "function"
    },
    {
      "inputs": [
        {
          "internalType": "address",
          "name": "newOwner",
          "type": "address"
        }
      ],
      "name": "transferOwnership",
      "outputs": [],
      "stateMutability": "nonpayable",
      "type": "function"
    },
    {
      "inputs": [
        {
          "internalType": "string",
          "name": "name_",
          "type": "string"
        },
        {
          "internalType": "string",
          "name": "symbol_",
          "type": "string"
        }
      ],
      "name": "initialize",
      "outputs": [],
      "stateMutability": "nonpayable",
      "type": "function"
    },
    {
      "inputs": [
        {
          "internalType": "address[]",
          "name": "addresses",
          "type": "address[]"
        },
        {
          "internalType": "uint256[]",
          "name": "nftIds",
          "type": "uint256[]"
        }
      ],
      "name": "mintTo",
      "outputs": [],
      "stateMutability": "nonpayable",
      "type": "function"
    },
    {
      "inputs": [
        {
          "internalType": "address",
          "name": "to",
          "type": "address"
        },
        {
          "internalType": "uint256",
          "name": "quantity",
          "type": "uint256"
        }
      ],
      "name": "mintMany",
      "outputs": [],
      "stateMutability": "nonpayable",
      "type": "function"
    }
  ],
  "bytecode": "0x6080604052600060c95534801561001557600080fd5b50611a88806100256000396000f3fe608060405234801561001057600080fd5b50600436106101215760003560e01c806369add11d116100ad578063a22cb46511610071578063a22cb46514610257578063b88d4fde1461026a578063c87b56dd1461027d578063e985e9c514610290578063f2fde38b146102cc57600080fd5b806369add11d1461020257806370a0823114610215578063715018a6146102365780638da5cb5b1461023e57806395d89b411461024f57600080fd5b806323b872dd116100f457806323b872dd146101a357806342842e0e146101b65780634cd88b76146101c95780635e830656146101dc5780636352211e146101ef57600080fd5b806301ffc9a71461012657806306fdde031461014e578063081812fc14610163578063095ea7b31461018e575b600080fd5b61013961013436600461135e565b6102df565b60405190151581526020015b60405180910390f35b610156610331565b60405161014591906113d3565b6101766101713660046113e6565b6103c3565b6040516001600160a01b039091168152602001610145565b6101a161019c36600461141b565b6103ea565b005b6101a16101b1366004611445565b610505565b6101a16101c4366004611445565b610536565b6101a16101d7366004611540565b610551565b6101a16101ea36600461141b565b61066d565b6101766101fd3660046113e6565b610683565b6101a1610210366004611633565b6106e3565b6102286102233660046116e9565b610789565b604051908152602001610145565b6101a161080f565b6097546001600160a01b0316610176565b610156610823565b6101a1610265366004611704565b610832565b6101a1610278366004611740565b61083d565b61015661028b3660046113e6565b610875565b61013961029e3660046117bc565b6001600160a01b039182166000908152606a6020908152604080832093909416825291909152205460ff1690565b6101a16102da3660046116e9565b6108e9565b60006001600160e01b031982166380ac58cd60e01b148061031057506001600160e01b03198216635b5e139f60e01b145b8061032b57506301ffc9a760e01b6001600160e01b03198316145b92915050565b606060658054610340906117ef565b80601f016020809104026020016040519081016040528092919081815260200182805461036c906117ef565b80156103b95780601f1061038e576101008083540402835291602001916103b9565b820191906000526020600020905b81548152906001019060200180831161039c57829003601f168201915b5050505050905090565b60006103ce82610962565b506000908152606960205260409020546001600160a01b031690565b60006103f582610683565b9050806001600160a01b0316836001600160a01b031614156104685760405162461bcd60e51b815260206004820152602160248201527f4552433732313a20617070726f76616c20746f2063757272656e74206f776e656044820152603960f91b60648201526084015b60405180910390fd5b336001600160a01b03821614806104845750610484813361029e565b6104f65760405162461bcd60e51b815260206004820152603e60248201527f4552433732313a20617070726f76652063616c6c6572206973206e6f7420746f60448201527f6b656e206f776e6572206e6f7220617070726f76656420666f7220616c6c0000606482015260840161045f565b61050083836109c1565b505050565b61050f3382610a2f565b61052b5760405162461bcd60e51b815260040161045f9061182a565b610500838383610aae565b6105008383836040518060200160405280600081525061083d565b600054610100900460ff16158080156105715750600054600160ff909116105b8061058b5750303b15801561058b575060005460ff166001145b6105ee5760405162461bcd60e51b815260206004820152602e60248201527f496e697469616c697a61626c653a20636f6e747261637420697320616c72656160448201526d191e481a5b9a5d1a585b1a5e995960921b606482015260840161045f565b6000805460ff191660011790558015610611576000805461ff0019166101001790555b610619610c4a565b6106238383610c79565b8015610500576000805461ff0019169055604051600181527f7f26b83ff96e1f2b6a682f133852f6798a09c465da95921460cefb38474024989060200160405180910390a1505050565b610675610caa565b61067f8282610d04565b5050565b6000818152606760205260408120546001600160a01b03168061032b5760405162461bcd60e51b8152602060048201526018602482015277115490cdcc8c4e881a5b9d985b1a59081d1bdad95b88125160421b604482015260640161045f565b6106eb610caa565b805182511461072f5760405162461bcd60e51b815260206004820152601060248201526f0d8cadccee8d040dcdee840dac2e8c6d60831b604482015260640161045f565b60005b82518110156105005761077783828151811061075057610750611878565b602002602001015183838151811061076a5761076a611878565b6020026020010151610d43565b80610781816118a4565b915050610732565b60006001600160a01b0382166107f35760405162461bcd60e51b815260206004820152602960248201527f4552433732313a2061646472657373207a65726f206973206e6f7420612076616044820152683634b21037bbb732b960b91b606482015260840161045f565b506001600160a01b031660009081526068602052604090205490565b610817610caa565b6108216000610d5d565b565b606060668054610340906117ef565b61067f338383610daf565b6108473383610a2f565b6108635760405162461bcd60e51b815260040161045f9061182a565b61086f84848484610e7e565b50505050565b606061088082610962565b600061089760408051602081019091526000815290565b905060008151116108b757604051806020016040528060008152506108e2565b806108c184610eb1565b6040516020016108d29291906118bf565b6040516020818303038152906040525b9392505050565b6108f1610caa565b6001600160a01b0381166109565760405162461bcd60e51b815260206004820152602660248201527f4f776e61626c653a206e6577206f776e657220697320746865207a65726f206160448201526564647265737360d01b606482015260840161045f565b61095f81610d5d565b50565b6000818152606760205260409020546001600160a01b031661095f5760405162461bcd60e51b8152602060048201526018602482015277115490cdcc8c4e881a5b9d985b1a59081d1bdad95b88125160421b604482015260640161045f565b600081815260696020526040902080546001600160a01b0319166001600160a01b03841690811790915581906109f682610683565b6001600160a01b03167f8c5be1e5ebec7d5bd14f71427d1e84f3dd0314c0f7b2291e5b200ac8c7c3b92560405160405180910390a45050565b600080610a3b83610683565b9050806001600160a01b0316846001600160a01b03161480610a8257506001600160a01b038082166000908152606a602090815260408083209388168352929052205460ff165b80610aa65750836001600160a01b0316610a9b846103c3565b6001600160a01b0316145b949350505050565b826001600160a01b0316610ac182610683565b6001600160a01b031614610b255760405162461bcd60e51b815260206004820152602560248201527f4552433732313a207472616e736665722066726f6d20696e636f72726563742060448201526437bbb732b960d91b606482015260840161045f565b6001600160a01b038216610b875760405162461bcd60e51b8152602060048201526024808201527f4552433732313a207472616e7366657220746f20746865207a65726f206164646044820152637265737360e01b606482015260840161045f565b610b926000826109c1565b6001600160a01b0383166000908152606860205260408120805460019290610bbb9084906118ee565b90915550506001600160a01b0382166000908152606860205260408120805460019290610be9908490611905565b909155505060008181526067602052604080822080546001600160a01b0319166001600160a01b0386811691821790925591518493918716917fddf252ad1be2c89b69c2b068fc378daa952ba7f163c4a11628f55a4df523b3ef91a4505050565b600054610100900460ff16610c715760405162461bcd60e51b815260040161045f9061191d565b610821610faf565b600054610100900460ff16610ca05760405162461bcd60e51b815260040161045f9061191d565b61067f8282610fdf565b6097546001600160a01b031633146108215760405162461bcd60e51b815260206004820181905260248201527f4f776e61626c653a2063616c6c6572206973206e6f7420746865206f776e6572604482015260640161045f565b60005b8181101561050057610d1b8360c954610d43565b60c98054906000610d2b836118a4565b91905055508080610d3b906118a4565b915050610d07565b61067f82826040518060200160405280600081525061102d565b609780546001600160a01b038381166001600160a01b0319831681179093556040519116919082907f8be0079c531659141344cd1fd0a4f28419497f9722a3daafe3b4186f6b6457e090600090a35050565b816001600160a01b0316836001600160a01b03161415610e115760405162461bcd60e51b815260206004820152601960248201527f4552433732313a20617070726f766520746f2063616c6c657200000000000000604482015260640161045f565b6001600160a01b038381166000818152606a6020908152604080832094871680845294825291829020805460ff191686151590811790915591519182527f17307eab39ab6107e8899845ad3d59bd9653f200f220920489ca2b5937696c31910160405180910390a3505050565b610e89848484610aae565b610e9584848484611060565b61086f5760405162461bcd60e51b815260040161045f90611968565b606081610ed55750506040805180820190915260018152600360fc1b602082015290565b8160005b8115610eff5780610ee9816118a4565b9150610ef89050600a836119d0565b9150610ed9565b60008167ffffffffffffffff811115610f1a57610f1a611481565b6040519080825280601f01601f191660200182016040528015610f44576020820181803683370190505b5090505b8415610aa657610f596001836118ee565b9150610f66600a866119e4565b610f71906030611905565b60f81b818381518110610f8657610f86611878565b60200101906001600160f81b031916908160001a905350610fa8600a866119d0565b9450610f48565b600054610100900460ff16610fd65760405162461bcd60e51b815260040161045f9061191d565b61082133610d5d565b600054610100900460ff166110065760405162461bcd60e51b815260040161045f9061191d565b81516110199060659060208501906112af565b5080516105009060669060208401906112af565b611037838361116d565b6110446000848484611060565b6105005760405162461bcd60e51b815260040161045f90611968565b60006001600160a01b0384163b1561116257604051630a85bd0160e11b81526001600160a01b0385169063150b7a02906110a49033908990889088906004016119f8565b602060405180830381600087803b1580156110be57600080fd5b505af19250505080156110ee575060408051601f3d908101601f191682019092526110eb91810190611a35565b60015b611148573d80801561111c576040519150601f19603f3d011682016040523d82523d6000602084013e611121565b606091505b5080516111405760405162461bcd60e51b815260040161045f90611968565b805181602001fd5b6001600160e01b031916630a85bd0160e11b149050610aa6565b506001949350505050565b6001600160a01b0382166111c35760405162461bcd60e51b815260206004820181905260248201527f4552433732313a206d696e7420746f20746865207a65726f2061646472657373604482015260640161045f565b6000818152606760205260409020546001600160a01b0316156112285760405162461bcd60e51b815260206004820152601c60248201527f4552433732313a20746f6b656e20616c7265616479206d696e74656400000000604482015260640161045f565b6001600160a01b0382166000908152606860205260408120805460019290611251908490611905565b909155505060008181526067602052604080822080546001600160a01b0319166001600160a01b03861690811790915590518392907fddf252ad1be2c89b69c2b068fc378daa952ba7f163c4a11628f55a4df523b3ef908290a45050565b8280546112bb906117ef565b90600052602060002090601f0160209004810192826112dd5760008555611323565b82601f106112f657805160ff1916838001178555611323565b82800160010185558215611323579182015b82811115611323578251825591602001919060010190611308565b5061132f929150611333565b5090565b5b8082111561132f5760008155600101611334565b6001600160e01b03198116811461095f57600080fd5b60006020828403121561137057600080fd5b81356108e281611348565b60005b8381101561139657818101518382015260200161137e565b8381111561086f5750506000910152565b600081518084526113bf81602086016020860161137b565b601f01601f19169290920160200192915050565b6020815260006108e260208301846113a7565b6000602082840312156113f857600080fd5b5035919050565b80356001600160a01b038116811461141657600080fd5b919050565b6000806040838503121561142e57600080fd5b611437836113ff565b946020939093013593505050565b60008060006060848603121561145a57600080fd5b611463846113ff565b9250611471602085016113ff565b9150604084013590509250925092565b634e487b7160e01b600052604160045260246000fd5b604051601f8201601f1916810167ffffffffffffffff811182821017156114c0576114c0611481565b604052919050565b600067ffffffffffffffff8311156114e2576114e2611481565b6114f5601f8401601f1916602001611497565b905082815283838301111561150957600080fd5b828260208301376000602084830101529392505050565b600082601f83011261153157600080fd5b6108e2838335602085016114c8565b6000806040838503121561155357600080fd5b823567ffffffffffffffff8082111561156b57600080fd5b61157786838701611520565b9350602085013591508082111561158d57600080fd5b5061159a85828601611520565b9150509250929050565b600067ffffffffffffffff8211156115be576115be611481565b5060051b60200190565b600082601f8301126115d957600080fd5b813560206115ee6115e9836115a4565b611497565b82815260059290921b8401810191818101908684111561160d57600080fd5b8286015b848110156116285780358352918301918301611611565b509695505050505050565b6000806040838503121561164657600080fd5b823567ffffffffffffffff8082111561165e57600080fd5b818501915085601f83011261167257600080fd5b813560206116826115e9836115a4565b82815260059290921b840181019181810190898411156116a157600080fd5b948201945b838610156116c6576116b7866113ff565b825294820194908201906116a6565b965050860135925050808211156116dc57600080fd5b5061159a858286016115c8565b6000602082840312156116fb57600080fd5b6108e2826113ff565b6000806040838503121561171757600080fd5b611720836113ff565b91506020830135801515811461173557600080fd5b809150509250929050565b6000806000806080858703121561175657600080fd5b61175f856113ff565b935061176d602086016113ff565b925060408501359150606085013567ffffffffffffffff81111561179057600080fd5b8501601f810187136117a157600080fd5b6117b0878235602084016114c8565b91505092959194509250565b600080604083850312156117cf57600080fd5b6117d8836113ff565b91506117e6602084016113ff565b90509250929050565b600181811c9082168061180357607f821691505b6020821081141561182457634e487b7160e01b600052602260045260246000fd5b50919050565b6020808252602e908201527f4552433732313a2063616c6c6572206973206e6f7420746f6b656e206f776e6560408201526d1c881b9bdc88185c1c1c9bdd995960921b606082015260800190565b634e487b7160e01b600052603260045260246000fd5b634e487b7160e01b600052601160045260246000fd5b60006000198214156118b8576118b861188e565b5060010190565b600083516118d181846020880161137b565b8351908301906118e581836020880161137b565b01949350505050565b6000828210156119005761190061188e565b500390565b600082198211156119185761191861188e565b500190565b6020808252602b908201527f496e697469616c697a61626c653a20636f6e7472616374206973206e6f74206960408201526a6e697469616c697a696e6760a81b606082015260800190565b60208082526032908201527f4552433732313a207472616e7366657220746f206e6f6e20455243373231526560408201527131b2b4bb32b91034b6b83632b6b2b73a32b960711b606082015260800190565b634e487b7160e01b600052601260045260246000fd5b6000826119df576119df6119ba565b500490565b6000826119f3576119f36119ba565b500690565b6001600160a01b0385811682528416602082015260408101839052608060608201819052600090611a2b908301846113a7565b9695505050505050565b600060208284031215611a4757600080fd5b81516108e28161134856fea2646970667358221220e6183eaaf31d4d4e33a9c3c1e923fd874a5c3571ff232ca742ec077a38db859564736f6c63430008090033",
  "immutableReferences": {},
  "source": "// SPDX-License-Identifier: MIT\n\npragma solidity ^0.8.0;\nimport \"@openzeppelin/contracts-upgradeable/access/OwnableUpgradeable.sol\";\nimport \"@openzeppelin/contracts-upgradeable/security/ReentrancyGuardUpgradeable.sol\";\nimport \"@openzeppelin/contracts-upgradeable/token/ERC721/ERC721Upgradeable.sol\";\nimport \"@openzeppelin/contracts-upgradeable/proxy/utils/Initializable.sol\";\nimport \"@openzeppelin/contracts/utils/Strings.sol\";\n\ncontract GeneralERC721V1 is ERC721Upgradeable, OwnableUpgradeable {\n  uint256 private nextTokenId = 0;\n\n  struct TokenOwnership {\n    address addr;\n    uint64 startTimestamp;\n  }\n  struct AddressData {\n    uint128 balance;\n    uint128 numberMinted;\n  }\n\n  // Mapping owner address to address data\n  mapping(address => AddressData) private _addressData;\n\n  function initialize(string memory name_, string memory symbol_) public initializer {\n    __Ownable_init();\n    __ERC721_init(name_, symbol_);\n  }\n\n  function mintTo(address[] memory addresses, uint256[] memory nftIds) public onlyOwner {\n    require(addresses.length == nftIds.length, \"length not match\");\n    for (uint256 i = 0; i < addresses.length; i++) {\n      _safeMint(addresses[i], nftIds[i]);\n    }\n  }\n\n  /**\n   * @dev Mints `quantity` tokens and transfers them to `to`.\n   *\n   * Requirements:\n   *\n   * - there must be `quantity` tokens remaining unminted in the total collection.\n   * - `to` cannot be the zero address.\n   * - `quantity` cannot be larger than the max batch size.\n   *\n   * Emits a {Transfer} event.\n   */\n  function _mintMany(address to, uint256 quantity) internal {\n    for (uint256 i = 0; i < quantity; i++) {\n      _safeMint(to, nextTokenId);\n      nextTokenId++;\n    }\n  }\n\n  function mintMany(address to, uint256 quantity) public onlyOwner {\n    _mintMany(to, quantity);\n  }\n}\n",
  "sourcePath": "/Users/namhoonlee/Desktop/git/open-smart-contracts/polygon/ERC721/contracts/GeneralERC721V1.sol",
  "compiler": {
    "name": "solc",
    "version": "0.8.9+commit.e5eed63a.Emscripten.clang"
  },
  "schemaVersion": "3.4.7",
  "updatedAt": "2022-10-11T09:39:41.040Z",
  "devdoc": {
    "kind": "dev",
    "methods": {
      "approve(address,uint256)": {
        "details": "See {IERC721-approve}."
      },
      "balanceOf(address)": {
        "details": "See {IERC721-balanceOf}."
      },
      "getApproved(uint256)": {
        "details": "See {IERC721-getApproved}."
      },
      "isApprovedForAll(address,address)": {
        "details": "See {IERC721-isApprovedForAll}."
      },
      "name()": {
        "details": "See {IERC721Metadata-name}."
      },
      "owner()": {
        "details": "Returns the address of the current owner."
      },
      "ownerOf(uint256)": {
        "details": "See {IERC721-ownerOf}."
      },
      "renounceOwnership()": {
        "details": "Leaves the contract without owner. It will not be possible to call `onlyOwner` functions anymore. Can only be called by the current owner. NOTE: Renouncing ownership will leave the contract without an owner, thereby removing any functionality that is only available to the owner."
      },
      "safeTransferFrom(address,address,uint256)": {
        "details": "See {IERC721-safeTransferFrom}."
      },
      "safeTransferFrom(address,address,uint256,bytes)": {
        "details": "See {IERC721-safeTransferFrom}."
      },
      "setApprovalForAll(address,bool)": {
        "details": "See {IERC721-setApprovalForAll}."
      },
      "supportsInterface(bytes4)": {
        "details": "See {IERC165-supportsInterface}."
      },
      "symbol()": {
        "details": "See {IERC721Metadata-symbol}."
      },
      "tokenURI(uint256)": {
        "details": "See {IERC721Metadata-tokenURI}."
      },
      "transferFrom(address,address,uint256)": {
        "details": "See {IERC721-transferFrom}."
      },
      "transferOwnership(address)": {
        "details": "Transfers ownership of the contract to a new account (`newOwner`). Can only be called by the current owner."
      }
    },
    "version": 1
  },
  "userdoc": {
    "kind": "user",
    "methods": {},
    "version": 1
  }
}