{
  "contractName": "TokenDistributer",
  "abi": [
    {
      "inputs": [
        {
          "internalType": "address",
          "name": "contractAddress",
          "type": "address"
        },
        {
          "internalType": "address[]",
          "name": "addresses",
          "type": "address[]"
        },
        {
          "internalType": "uint256[]",
          "name": "tokenIds",
          "type": "uint256[]"
        }
      ],
      "name": "distributeERC721",
      "outputs": [],
      "stateMutability": "nonpayable",
      "type": "function"
    },
    {
      "inputs": [
        {
          "internalType": "address",
          "name": "contractAddress",
          "type": "address"
        },
        {
          "internalType": "address[]",
          "name": "addresses",
          "type": "address[]"
        },
        {
          "internalType": "uint256[]",
          "name": "amounts",
          "type": "uint256[]"
        }
      ],
      "name": "distributeERC20",
      "outputs": [],
      "stateMutability": "nonpayable",
      "type": "function"
    }
  ],
  "bytecode": "0x608060405234801561001057600080fd5b506105a7806100206000396000f3fe608060405234801561001057600080fd5b50600436106100365760003560e01c8063b32d79dd1461003b578063feeb944914610050575b600080fd5b61004e610049366004610397565b610063565b005b61004e61005e366004610397565b610194565b61012c8251111561008f5760405162461bcd60e51b815260040161008690610469565b60405180910390fd5b80518251146100b05760405162461bcd60e51b8152600401610086906104bd565b60005b825181101561018e57836001600160a01b03166323b872dd338584815181106100de576100de61050b565b60200260200101518585815181106100f8576100f861050b565b60209081029190910101516040516001600160e01b031960e086901b1681526001600160a01b03938416600482015292909116602483015260448201526064016020604051808303816000875af1158015610157573d6000803e3d6000fd5b505050506040513d601f19601f8201168201806040525081019061017b9190610521565b50806101868161054a565b9150506100b3565b50505050565b61012c825111156101b75760405162461bcd60e51b815260040161008690610469565b80518251146101d85760405162461bcd60e51b8152600401610086906104bd565b60005b825181101561018e57836001600160a01b03166342842e0e338584815181106102065761020661050b565b60200260200101518585815181106102205761022061050b565b60209081029190910101516040516001600160e01b031960e086901b1681526001600160a01b0393841660048201529290911660248301526044820152606401600060405180830381600087803b15801561027a57600080fd5b505af115801561028e573d6000803e3d6000fd5b50505050808061029d9061054a565b9150506101db565b80356001600160a01b03811681146102bc57600080fd5b919050565b634e487b7160e01b600052604160045260246000fd5b604051601f8201601f1916810167ffffffffffffffff81118282101715610300576103006102c1565b604052919050565b600067ffffffffffffffff821115610322576103226102c1565b5060051b60200190565b600082601f83011261033d57600080fd5b8135602061035261034d83610308565b6102d7565b82815260059290921b8401810191818101908684111561037157600080fd5b8286015b8481101561038c5780358352918301918301610375565b509695505050505050565b6000806000606084860312156103ac57600080fd5b6103b5846102a5565b925060208085013567ffffffffffffffff808211156103d357600080fd5b818701915087601f8301126103e757600080fd5b81356103f561034d82610308565b81815260059190911b8301840190848101908a83111561041457600080fd5b938501935b828510156104395761042a856102a5565b82529385019390850190610419565b96505050604087013592508083111561045157600080fd5b505061045f8682870161032c565b9150509250925092565b60208082526034908201527f796f752063616e206469737472696275746520746f6b656e7320746f206c657360408201527373207468616e203330302061646472657373657360601b606082015260800190565b6020808252602e908201527f6c656e677468206f662061646472657373657320616e6420746f6b656e49647360408201526d081b5d5cdd08189948195c5d585b60921b606082015260800190565b634e487b7160e01b600052603260045260246000fd5b60006020828403121561053357600080fd5b8151801515811461054357600080fd5b9392505050565b60006001820161056a57634e487b7160e01b600052601160045260246000fd5b506001019056fea2646970667358221220d435757ce41ec214850d5c5f40b590cf26863bcad528550e8b4023faa2f1e7e164736f6c63430008110033",
  "immutableReferences": {},
  "source": "// SPDX-License-Identifier: MIT\n\nimport \"@openzeppelin/contracts/token/ERC20/IERC20.sol\";\nimport \"@openzeppelin/contracts/token/ERC721/IERC721.sol\";\n\npragma solidity ^0.8.0;\n\ncontract TokenDistributer {\n  function distributeERC721(address contractAddress, address[] memory addresses, uint256[] memory tokenIds) public {\n    require(addresses.length<=300,\"you can distribute tokens to less than 300 addresses\");\n    require(addresses.length == tokenIds.length, \"length of addresses and tokenIds must be equal\");\n\n    for(uint256 i=0;i<addresses.length;i++){\n      IERC721(contractAddress).safeTransferFrom(msg.sender, addresses[i], tokenIds[i]);\n    }\n  }\n\n  function distributeERC20(address contractAddress, address[] memory addresses, uint256[] memory amounts) public {\n    require(addresses.length<=300,\"you can distribute tokens to less than 300 addresses\");\n    require(addresses.length == amounts.length, \"length of addresses and tokenIds must be equal\");\n\n    for(uint256 i=0;i<addresses.length;i++){\n      IERC20(contractAddress).transferFrom(msg.sender,addresses[i],amounts[i]);\n    }\n  }\n}",
  "sourcePath": "/Users/namhoonlee/Desktop/git/open-smart-contracts/ethereum/TokenDistributer/contracts/TokenDistributer.sol",
  "compiler": {
    "name": "solc",
    "version": "0.8.17+commit.8df45f5f.Emscripten.clang"
  },
  "schemaVersion": "3.4.10",
  "updatedAt": "2022-10-24T06:04:40.643Z",
  "networkType": "ethereum",
  "devdoc": {
    "kind": "dev",
    "methods": {},
    "version": 1
  },
  "userdoc": {
    "kind": "user",
    "methods": {},
    "version": 1
  }
}