{
  "contractName": "EthDistributer",
  "abi": [
    {
      "inputs": [
        {
          "internalType": "address payable[]",
          "name": "addresses",
          "type": "address[]"
        },
        {
          "internalType": "uint256[]",
          "name": "amounts",
          "type": "uint256[]"
        }
      ],
      "name": "distribute",
      "outputs": [],
      "stateMutability": "payable",
      "type": "function",
      "payable": true
    }
  ],
  "bytecode": "0x608060405234801561001057600080fd5b50610462806100206000396000f3fe60806040526004361061001e5760003560e01c80632929abe614610023575b600080fd5b6100366100313660046102e7565b610038565b005b80518251146100a55760405162461bcd60e51b815260206004820152602e60248201527f6c656e677468206f662061646472657373657320616e6420746f6b656e49647360448201526d081b5d5cdd08189948195c5d585b60921b60648201526084015b60405180910390fd5b6000805b82518110156100eb578281815181106100c4576100c46103b6565b6020026020010151826100d791906103e2565b9150806100e3816103fa565b9150506100a9565b506100f581610185565b60005b835181101561017f57838181518110610113576101136103b6565b60200260200101516001600160a01b03166108fc848381518110610139576101396103b6565b60200260200101519081150290604051600060405180830381858888f1935050505015801561016c573d6000803e3d6000fd5b5080610177816103fa565b9150506100f8565b50505050565b803410156101ce5760405162461bcd60e51b81526020600482015260166024820152752732b2b2103a379039b2b7321036b7b9329022aa241760511b604482015260640161009c565b8034111561020e57336108fc6101e48334610415565b6040518115909202916000818181858888f1935050505015801561020c573d6000803e3d6000fd5b505b50565b634e487b7160e01b600052604160045260246000fd5b604051601f8201601f1916810167ffffffffffffffff8111828210171561025057610250610211565b604052919050565b600067ffffffffffffffff82111561027257610272610211565b5060051b60200190565b600082601f83011261028d57600080fd5b813560206102a261029d83610258565b610227565b82815260059290921b840181019181810190868411156102c157600080fd5b8286015b848110156102dc57803583529183019183016102c5565b509695505050505050565b600080604083850312156102fa57600080fd5b823567ffffffffffffffff8082111561031257600080fd5b818501915085601f83011261032657600080fd5b8135602061033661029d83610258565b82815260059290921b8401810191818101908984111561035557600080fd5b948201945b838610156103895785356001600160a01b038116811461037a5760008081fd5b8252948201949082019061035a565b9650508601359250508082111561039f57600080fd5b506103ac8582860161027c565b9150509250929050565b634e487b7160e01b600052603260045260246000fd5b634e487b7160e01b600052601160045260246000fd5b600082198211156103f5576103f56103cc565b500190565b600060001982141561040e5761040e6103cc565b5060010190565b600082821015610427576104276103cc565b50039056fea26469706673582212209b4a2498dacaadf0fb40eaba21e26d8a8acf54a6e6302d7848606054175c9b0664736f6c63430008090033",
  "immutableReferences": {},
  "source": "// SPDX-License-Identifier: MIT\npragma solidity ^0.8.9;\n\ncontract EthDistributer {\n  function distribute(address payable[] memory addresses, uint256[] memory amounts) public payable {\n    require(addresses.length == amounts.length, \"length of addresses and tokenIds must be equal\");\n    uint256 total=0;\n    for(uint256 i=0;i<amounts.length;i++){\n      total+=amounts[i];\n    }\n    refundIfOver(total);\n    for(uint256 i=0;i<addresses.length;i++){\n      addresses[i].transfer(amounts[i]);\n    }\n  }\n\n  function refundIfOver(uint256 value_) private {\n    require(msg.value >= value_, \"Need to send more ETH.\");\n    if (msg.value > value_) {\n      payable(msg.sender).transfer(msg.value - value_);\n    }\n  }\n}",
  "sourcePath": "/Users/namhoonlee/Desktop/git/open-smart-contracts/ethereum/EthDistributer/contracts/EthDistributer.sol",
  "compiler": {
    "name": "solc",
    "version": "0.8.9+commit.e5eed63a.Emscripten.clang"
  },
  "schemaVersion": "3.4.7",
  "updatedAt": "2022-10-11T02:24:14.859Z",
  "networkType": "ethereum",
  "devdoc": {
    "kind": "dev",
    "methods": {},
    "version": 1
  },
  "userdoc": {
    "kind": "user",
    "methods": {},
    "version": 1
  }
}