{
  "contractName": "TokenDistributer",
  "abi": [
    {
      "constant": false,
      "inputs": [
        {
          "name": "contractAddress",
          "type": "address"
        },
        {
          "name": "addresses",
          "type": "address[]"
        },
        {
          "name": "tokenIds",
          "type": "uint256[]"
        }
      ],
      "name": "distributeKIP17",
      "outputs": [],
      "payable": false,
      "stateMutability": "nonpayable",
      "type": "function"
    },
    {
      "constant": false,
      "inputs": [
        {
          "name": "contractAddress",
          "type": "address"
        },
        {
          "name": "addresses",
          "type": "address[]"
        },
        {
          "name": "amounts",
          "type": "uint256[]"
        }
      ],
      "name": "distributeKIP7",
      "outputs": [],
      "payable": false,
      "stateMutability": "nonpayable",
      "type": "function"
    }
  ],
  "bytecode": "0x608060405234801561001057600080fd5b50610520806100206000396000f3fe608060405234801561001057600080fd5b50600436106100365760003560e01c8063b159971b1461003b578063bc6df2b414610170575b600080fd5b61016e6004803603606081101561005157600080fd5b6001600160a01b038235169190810190604081016020820135600160201b81111561007b57600080fd5b82018360208201111561008d57600080fd5b803590602001918460208302840111600160201b831117156100ae57600080fd5b9190808060200260200160405190810160405280939291908181526020018383602002808284376000920191909152509295949360208101935035915050600160201b8111156100fd57600080fd5b82018360208201111561010f57600080fd5b803590602001918460208302840111600160201b8311171561013057600080fd5b9190808060200260200160405190810160405280939291908181526020018383602002808284376000920191909152509295506102a3945050505050565b005b61016e6004803603606081101561018657600080fd5b6001600160a01b038235169190810190604081016020820135600160201b8111156101b057600080fd5b8201836020820111156101c257600080fd5b803590602001918460208302840111600160201b831117156101e357600080fd5b9190808060200260200160405190810160405280939291908181526020018383602002808284376000920191909152509295949360208101935035915050600160201b81111561023257600080fd5b82018360208201111561024457600080fd5b803590602001918460208302840111600160201b8311171561026557600080fd5b9190808060200260200160405190810160405280939291908181526020018383602002808284376000920191909152509295506103b3945050505050565b80518251146102e657604051600160e51b62461bcd02815260040180806020018281038252602e8152602001806104c7602e913960400191505060405180910390fd5b60005b82518110156103ad57836001600160a01b031663b88d4fde3385848151811061030e57fe5b602002602001015185858151811061032257fe5b60209081029190910101516040805163ffffffff861660e01b81526001600160a01b039485166004820152929093166024830152604482015260806064820152600060848201819052915160c4808301939282900301818387803b15801561038957600080fd5b505af115801561039d573d6000803e3d6000fd5b5050600190920191506102e99050565b50505050565b80518251146103f657604051600160e51b62461bcd02815260040180806020018281038252602e8152602001806104c7602e913960400191505060405180910390fd5b60005b82518110156103ad57836001600160a01b03166342842e0e3385848151811061041e57fe5b602002602001015185858151811061043257fe5b60200260200101516040518463ffffffff1660e01b815260040180846001600160a01b03166001600160a01b03168152602001836001600160a01b03166001600160a01b031681526020018281526020019350505050600060405180830381600087803b1580156104a257600080fd5b505af11580156104b6573d6000803e3d6000fd5b5050600190920191506103f9905056fe6c656e677468206f662061646472657373657320616e6420746f6b656e496473206d75737420626520657175616ca165627a7a723058203eaacaf89e65e48cf2d1ad35297eebcaadff9f556b17ea6db365251e88462c4d0029",
  "source": "// SPDX-License-Identifier: MIT\n\nimport \"./IKIP17.sol\";\nimport \"./IKIP7.sol\";\n\npragma solidity ^0.5.6;\n\ncontract TokenDistributer {\n  function distributeKIP17(address contractAddress, address[] memory addresses, uint256[] memory tokenIds) public {\n    require(addresses.length == tokenIds.length, \"length of addresses and tokenIds must be equal\");\n    for(uint256 i=0;i<addresses.length;i++){\n      IKIP17(contractAddress).safeTransferFrom(msg.sender, addresses[i], tokenIds[i]);\n    }\n  }\n\n  function distributeKIP7(address contractAddress, address[] memory addresses, uint256[] memory amounts) public {\n    require(addresses.length == amounts.length, \"length of addresses and tokenIds must be equal\");\n    for(uint256 i=0;i<addresses.length;i++){\n      IKIP7(contractAddress).safeTransferFrom(msg.sender, addresses[i], amounts[i], \"\");\n    }\n  }\n}",
  "sourcePath": "/Users/namhoonlee/Desktop/git/open-smart-contracts/klaytn/TokenDistributer/contracts/TokenDistributer.sol",
  "compiler": {
    "name": "solc",
    "version": "0.5.6+commit.b259423e.Emscripten.clang"
  },
  "schemaVersion": "3.4.10",
  "updatedAt": "2022-10-24T06:14:11.221Z",
  "devdoc": {
    "methods": {}
  },
  "userdoc": {
    "methods": {}
  }
}