{
  "contractName": "KlayDistributer",
  "abi": [
    {
      "constant": false,
      "inputs": [
        {
          "name": "addresses",
          "type": "address[]"
        },
        {
          "name": "amounts",
          "type": "uint256[]"
        }
      ],
      "name": "distribute",
      "outputs": [],
      "payable": true,
      "stateMutability": "payable",
      "type": "function"
    }
  ],
  "bytecode": "0x608060405234801561001057600080fd5b50610333806100206000396000f3fe60806040526004361061001e5760003560e01c80632929abe614610023575b600080fd5b61014a6004803603604081101561003957600080fd5b81019060208101813564010000000081111561005457600080fd5b82018360208201111561006657600080fd5b8035906020019184602083028401116401000000008311171561008857600080fd5b91908080602002602001604051908101604052809392919081815260200183836020028082843760009201919091525092959493602081019350359150506401000000008111156100d857600080fd5b8201836020820111156100ea57600080fd5b8035906020019184602083028401116401000000008311171561010c57600080fd5b91908080602002602001604051908101604052809392919081815260200183836020028082843760009201919091525092955061014c945050505050565b005b805182511461018f57604051600160e51b62461bcd02815260040180806020018281038252602e8152602001806102da602e913960400191505060405180910390fd5b6000805b82518110156101c1578281815181106101a857fe5b6020026020010151820191508080600101915050610193565b506101cb81610245565b60005b835181101561023f578381815181106101e357fe5b60200260200101516001600160a01b03166108fc84838151811061020357fe5b60200260200101519081150290604051600060405180830381858888f19350505050158015610236573d6000803e3d6000fd5b506001016101ce565b50505050565b8034101561029d5760408051600160e51b62461bcd02815260206004820152601660248201527f4e65656420746f2073656e64206d6f7265204554482e00000000000000000000604482015290519081900360640190fd5b803411156102d65760405133903483900380156108fc02916000818181858888f193505050501580156102d4573d6000803e3d6000fd5b505b5056fe6c656e677468206f662061646472657373657320616e6420746f6b656e496473206d75737420626520657175616ca165627a7a72305820533335e06a4cbae0c7cb37566488ad996ab24652d656c2ca2544ac28d28cc98c0029",
  "source": "// SPDX-License-Identifier: MIT\n\nimport \"./IKIP17.sol\";\nimport \"./IKIP7.sol\";\n\npragma solidity ^0.5.6;\n\ncontract KlayDistributer {\n  function distribute(address payable[] memory addresses, uint256[] memory amounts) public payable {\n    require(addresses.length == amounts.length, \"length of addresses and tokenIds must be equal\");\n    uint256 total=0;\n    for(uint256 i=0;i<amounts.length;i++){\n      total+=amounts[i];\n    }\n    refundIfOver(total);\n    for(uint256 i=0;i<addresses.length;i++){\n      addresses[i].transfer(amounts[i]);\n    }\n  }\n\n  function refundIfOver(uint256 value_) private {\n    require(msg.value >= value_, \"Need to send more ETH.\");\n    if (msg.value > value_) {\n      msg.sender.transfer(msg.value - value_);\n    }\n  }\n}",
  "sourcePath": "/Users/namhoonlee/Desktop/git/open-smart-contracts/klaytn/KlayDistributer/contracts/KlayDistributer.sol",
  "compiler": {
    "name": "solc",
    "version": "0.5.6+commit.b259423e.Emscripten.clang"
  },
  "schemaVersion": "3.4.7",
  "updatedAt": "2022-10-11T01:47:49.087Z",
  "networkType": "ethereum",
  "devdoc": {
    "methods": {}
  },
  "userdoc": {
    "methods": {}
  }
}